{
  "_format": "hh-sol-artifact-1",
  "contractName": "Domains",
  "sourceName": "contracts/Domain.sol",
  "abi": [
    {
      "inputs": [
        {
          "internalType": "string",
          "name": "_tld",
          "type": "string"
        }
      ],
      "stateMutability": "payable",
      "type": "constructor"
    },
    {
      "inputs": [],
      "name": "AlreadyRegistered",
      "type": "error"
    },
    {
      "inputs": [
        {
          "internalType": "string",
          "name": "name",
          "type": "string"
        }
      ],
      "name": "InvalidName",
      "type": "error"
    },
    {
      "inputs": [],
      "name": "Unauthorized",
      "type": "error"
    },
    {
      "anonymous": false,
      "inputs": [
        {
          "indexed": true,
          "internalType": "address",
          "name": "owner",
          "type": "address"
        },
        {
          "indexed": true,
          "internalType": "address",
          "name": "approved",
          "type": "address"
        },
        {
          "indexed": true,
          "internalType": "uint256",
          "name": "tokenId",
          "type": "uint256"
        }
      ],
      "name": "Approval",
      "type": "event"
    },
    {
      "anonymous": false,
      "inputs": [
        {
          "indexed": true,
          "internalType": "address",
          "name": "owner",
          "type": "address"
        },
        {
          "indexed": true,
          "internalType": "address",
          "name": "operator",
          "type": "address"
        },
        {
          "indexed": false,
          "internalType": "bool",
          "name": "approved",
          "type": "bool"
        }
      ],
      "name": "ApprovalForAll",
      "type": "event"
    },
    {
      "anonymous": false,
      "inputs": [
        {
          "indexed": true,
          "internalType": "address",
          "name": "from",
          "type": "address"
        },
        {
          "indexed": true,
          "internalType": "address",
          "name": "to",
          "type": "address"
        },
        {
          "indexed": true,
          "internalType": "uint256",
          "name": "tokenId",
          "type": "uint256"
        }
      ],
      "name": "Transfer",
      "type": "event"
    },
    {
      "inputs": [
        {
          "internalType": "address",
          "name": "to",
          "type": "address"
        },
        {
          "internalType": "uint256",
          "name": "tokenId",
          "type": "uint256"
        }
      ],
      "name": "approve",
      "outputs": [],
      "stateMutability": "nonpayable",
      "type": "function"
    },
    {
      "inputs": [
        {
          "internalType": "address",
          "name": "owner",
          "type": "address"
        }
      ],
      "name": "balanceOf",
      "outputs": [
        {
          "internalType": "uint256",
          "name": "",
          "type": "uint256"
        }
      ],
      "stateMutability": "view",
      "type": "function"
    },
    {
      "inputs": [
        {
          "internalType": "string",
          "name": "_name",
          "type": "string"
        }
      ],
      "name": "createDomain",
      "outputs": [],
      "stateMutability": "payable",
      "type": "function"
    },
    {
      "inputs": [
        {
          "internalType": "string",
          "name": "",
          "type": "string"
        }
      ],
      "name": "domains",
      "outputs": [
        {
          "internalType": "address",
          "name": "",
          "type": "address"
        }
      ],
      "stateMutability": "view",
      "type": "function"
    },
    {
      "inputs": [
        {
          "internalType": "string",
          "name": "_name",
          "type": "string"
        }
      ],
      "name": "getAddress",
      "outputs": [
        {
          "internalType": "address",
          "name": "",
          "type": "address"
        }
      ],
      "stateMutability": "view",
      "type": "function"
    },
    {
      "inputs": [],
      "name": "getAllNames",
      "outputs": [
        {
          "internalType": "string[]",
          "name": "",
          "type": "string[]"
        }
      ],
      "stateMutability": "view",
      "type": "function"
    },
    {
      "inputs": [
        {
          "internalType": "uint256",
          "name": "tokenId",
          "type": "uint256"
        }
      ],
      "name": "getApproved",
      "outputs": [
        {
          "internalType": "address",
          "name": "",
          "type": "address"
        }
      ],
      "stateMutability": "view",
      "type": "function"
    },
    {
      "inputs": [
        {
          "internalType": "string",
          "name": "_name",
          "type": "string"
        }
      ],
      "name": "getRecord",
      "outputs": [
        {
          "internalType": "string",
          "name": "",
          "type": "string"
        }
      ],
      "stateMutability": "view",
      "type": "function"
    },
    {
      "inputs": [
        {
          "internalType": "address",
          "name": "owner",
          "type": "address"
        },
        {
          "internalType": "address",
          "name": "operator",
          "type": "address"
        }
      ],
      "name": "isApprovedForAll",
      "outputs": [
        {
          "internalType": "bool",
          "name": "",
          "type": "bool"
        }
      ],
      "stateMutability": "view",
      "type": "function"
    },
    {
      "inputs": [],
      "name": "name",
      "outputs": [
        {
          "internalType": "string",
          "name": "",
          "type": "string"
        }
      ],
      "stateMutability": "view",
      "type": "function"
    },
    {
      "inputs": [],
      "name": "owner",
      "outputs": [
        {
          "internalType": "address payable",
          "name": "",
          "type": "address"
        }
      ],
      "stateMutability": "view",
      "type": "function"
    },
    {
      "inputs": [
        {
          "internalType": "uint256",
          "name": "tokenId",
          "type": "uint256"
        }
      ],
      "name": "ownerOf",
      "outputs": [
        {
          "internalType": "address",
          "name": "",
          "type": "address"
        }
      ],
      "stateMutability": "view",
      "type": "function"
    },
    {
      "inputs": [
        {
          "internalType": "string",
          "name": "_name",
          "type": "string"
        }
      ],
      "name": "price",
      "outputs": [
        {
          "internalType": "uint256",
          "name": "",
          "type": "uint256"
        }
      ],
      "stateMutability": "pure",
      "type": "function"
    },
    {
      "inputs": [
        {
          "internalType": "string",
          "name": "",
          "type": "string"
        }
      ],
      "name": "records",
      "outputs": [
        {
          "internalType": "string",
          "name": "",
          "type": "string"
        }
      ],
      "stateMutability": "view",
      "type": "function"
    },
    {
      "inputs": [
        {
          "internalType": "address",
          "name": "from",
          "type": "address"
        },
        {
          "internalType": "address",
          "name": "to",
          "type": "address"
        },
        {
          "internalType": "uint256",
          "name": "tokenId",
          "type": "uint256"
        }
      ],
      "name": "safeTransferFrom",
      "outputs": [],
      "stateMutability": "nonpayable",
      "type": "function"
    },
    {
      "inputs": [
        {
          "internalType": "address",
          "name": "from",
          "type": "address"
        },
        {
          "internalType": "address",
          "name": "to",
          "type": "address"
        },
        {
          "internalType": "uint256",
          "name": "tokenId",
          "type": "uint256"
        },
        {
          "internalType": "bytes",
          "name": "_data",
          "type": "bytes"
        }
      ],
      "name": "safeTransferFrom",
      "outputs": [],
      "stateMutability": "nonpayable",
      "type": "function"
    },
    {
      "inputs": [
        {
          "internalType": "address",
          "name": "operator",
          "type": "address"
        },
        {
          "internalType": "bool",
          "name": "approved",
          "type": "bool"
        }
      ],
      "name": "setApprovalForAll",
      "outputs": [],
      "stateMutability": "nonpayable",
      "type": "function"
    },
    {
      "inputs": [
        {
          "internalType": "string",
          "name": "_name",
          "type": "string"
        },
        {
          "internalType": "string",
          "name": "_recordDesc",
          "type": "string"
        }
      ],
      "name": "setRecord",
      "outputs": [],
      "stateMutability": "nonpayable",
      "type": "function"
    },
    {
      "inputs": [
        {
          "internalType": "bytes4",
          "name": "interfaceId",
          "type": "bytes4"
        }
      ],
      "name": "supportsInterface",
      "outputs": [
        {
          "internalType": "bool",
          "name": "",
          "type": "bool"
        }
      ],
      "stateMutability": "view",
      "type": "function"
    },
    {
      "inputs": [],
      "name": "symbol",
      "outputs": [
        {
          "internalType": "string",
          "name": "",
          "type": "string"
        }
      ],
      "stateMutability": "view",
      "type": "function"
    },
    {
      "inputs": [],
      "name": "tld",
      "outputs": [
        {
          "internalType": "string",
          "name": "",
          "type": "string"
        }
      ],
      "stateMutability": "view",
      "type": "function"
    },
    {
      "inputs": [
        {
          "internalType": "uint256",
          "name": "tokenId",
          "type": "uint256"
        }
      ],
      "name": "tokenURI",
      "outputs": [
        {
          "internalType": "string",
          "name": "",
          "type": "string"
        }
      ],
      "stateMutability": "view",
      "type": "function"
    },
    {
      "inputs": [
        {
          "internalType": "address",
          "name": "from",
          "type": "address"
        },
        {
          "internalType": "address",
          "name": "to",
          "type": "address"
        },
        {
          "internalType": "uint256",
          "name": "tokenId",
          "type": "uint256"
        }
      ],
      "name": "transferFrom",
      "outputs": [],
      "stateMutability": "nonpayable",
      "type": "function"
    },
    {
      "inputs": [
        {
          "internalType": "string",
          "name": "_name",
          "type": "string"
        }
      ],
      "name": "valid",
      "outputs": [
        {
          "internalType": "bool",
          "name": "",
          "type": "bool"
        }
      ],
      "stateMutability": "pure",
      "type": "function"
    },
    {
      "inputs": [],
      "name": "withdraw",
      "outputs": [],
      "stateMutability": "nonpayable",
      "type": "function"
    }
  ],
  "bytecode": "0x6080604052604051806120000160405280611fd98152602001620050e6611fd99139600a908051906020019062000038929190620001ad565b506040518060400160405280600d81526020017f3c2f746578743e3c2f7376673e00000000000000000000000000000000000000815250600b908051906020019062000086929190620001ad565b50604051620070bf380380620070bf8339818101604052810190620000ac9190620002cf565b6040518060400160405280601281526020017f5465746173204e616d65205365727669636500000000000000000000000000008152506040518060400160405280600381526020017f544e530000000000000000000000000000000000000000000000000000000000815250816000908051906020019062000130929190620001ad565b50806001908051906020019062000149929190620001ad565b50505033600760006101000a81548173ffffffffffffffffffffffffffffffffffffffff021916908373ffffffffffffffffffffffffffffffffffffffff1602179055508060099080519060200190620001a5929190620001ad565b505062000484565b828054620001bb90620003a9565b90600052602060002090601f016020900481019282620001df57600085556200022b565b82601f10620001fa57805160ff19168380011785556200022b565b828001600101855582156200022b579182015b828111156200022a5782518255916020019190600101906200020d565b5b5090506200023a91906200023e565b5090565b5b80821115620002595760008160009055506001016200023f565b5090565b6000620002746200026e846200033d565b62000314565b9050828152602081018484840111156200028d57600080fd5b6200029a84828562000373565b509392505050565b600082601f830112620002b457600080fd5b8151620002c68482602086016200025d565b91505092915050565b600060208284031215620002e257600080fd5b600082015167ffffffffffffffff811115620002fd57600080fd5b6200030b84828501620002a2565b91505092915050565b60006200032062000333565b90506200032e8282620003df565b919050565b6000604051905090565b600067ffffffffffffffff8211156200035b576200035a62000444565b5b620003668262000473565b9050602081019050919050565b60005b838110156200039357808201518184015260208101905062000376565b83811115620003a3576000848401525b50505050565b60006002820490506001821680620003c257607f821691505b60208210811415620003d957620003d862000415565b5b50919050565b620003ea8262000473565b810181811067ffffffffffffffff821117156200040c576200040b62000444565b5b80604052505050565b7f4e487b7100000000000000000000000000000000000000000000000000000000600052602260045260246000fd5b7f4e487b7100000000000000000000000000000000000000000000000000000000600052604160045260246000fd5b6000601f19601f8301169050919050565b614c5280620004946000396000f3fe6080604052600436106101665760003560e01c806370a08231116100d1578063bf40fac11161008a578063de2309a211610064578063de2309a214610586578063e985e9c5146105a2578063fb825e5f146105df578063fe2c61981461060a57610166565b8063bf40fac1146104e3578063c1880a9814610520578063c87b56dd1461054957610166565b806370a08231146103c15780638da5cb5b146103fe57806395d89b41146104295780639791c09714610454578063a22cb46514610491578063b88d4fde146104ba57610166565b80632644923511610123578063264492351461029f5780632d551432146102dc5780633ccfd60b1461030757806342842e0e1461031e578063541e771d146103475780636352211e1461038457610166565b806301ffc9a71461016b57806306fdde03146101a8578063081812fc146101d3578063095ea7b31461021057806311dd88451461023957806323b872dd14610276575b600080fd5b34801561017757600080fd5b50610192600480360381019061018d919061328f565b610647565b60405161019f9190613c45565b60405180910390f35b3480156101b457600080fd5b506101bd610729565b6040516101ca9190613c84565b60405180910390f35b3480156101df57600080fd5b506101fa60048036038101906101f591906133dc565b6107bb565b6040516102079190613ba1565b60405180910390f35b34801561021c57600080fd5b5061023760048036038101906102329190613253565b610840565b005b34801561024557600080fd5b50610260600480360381019061025b91906132e1565b610958565b60405161026d9190613c84565b60405180910390f35b34801561028257600080fd5b5061029d6004803603810190610298919061314d565b610abf565b005b3480156102ab57600080fd5b506102c660048036038101906102c1919061339b565b610b1f565b6040516102d39190613ba1565b60405180910390f35b3480156102e857600080fd5b506102f1610b68565b6040516102fe9190613c84565b60405180910390f35b34801561031357600080fd5b5061031c610bf6565b005b34801561032a57600080fd5b506103456004803603810190610340919061314d565b610d05565b005b34801561035357600080fd5b5061036e6004803603810190610369919061339b565b610d25565b60405161037b9190613c84565b60405180910390f35b34801561039057600080fd5b506103ab60048036038101906103a691906133dc565b610ddb565b6040516103b89190613ba1565b60405180910390f35b3480156103cd57600080fd5b506103e860048036038101906103e391906130e8565b610e8d565b6040516103f59190613fc0565b60405180910390f35b34801561040a57600080fd5b50610413610f45565b6040516104209190613bbc565b60405180910390f35b34801561043557600080fd5b5061043e610f6b565b60405161044b9190613c84565b60405180910390f35b34801561046057600080fd5b5061047b600480360381019061047691906132e1565b610ffd565b6040516104889190613c45565b60405180910390f35b34801561049d57600080fd5b506104b860048036038101906104b39190613217565b6110b1565b005b3480156104c657600080fd5b506104e160048036038101906104dc919061319c565b6110c7565b005b3480156104ef57600080fd5b5061050a600480360381019061050591906132e1565b611129565b6040516105179190613ba1565b60405180910390f35b34801561052c57600080fd5b5061054760048036038101906105429190613326565b611228565b005b34801561055557600080fd5b50610570600480360381019061056b91906133dc565b6113c0565b60405161057d9190613c84565b60405180910390f35b6105a0600480360381019061059b91906132e1565b611512565b005b3480156105ae57600080fd5b506105c960048036038101906105c49190613111565b611918565b6040516105d69190613c45565b60405180910390f35b3480156105eb57600080fd5b506105f46119ac565b6040516106019190613c23565b60405180910390f35b34801561061657600080fd5b50610631600480360381019061062c91906132e1565b611b3e565b60405161063e9190613fc0565b60405180910390f35b60007f80ac58cd000000000000000000000000000000000000000000000000000000007bffffffffffffffffffffffffffffffffffffffffffffffffffffffff1916827bffffffffffffffffffffffffffffffffffffffffffffffffffffffff1916148061071257507f5b5e139f000000000000000000000000000000000000000000000000000000007bffffffffffffffffffffffffffffffffffffffffffffffffffffffff1916827bffffffffffffffffffffffffffffffffffffffffffffffffffffffff1916145b80610722575061072182611c1a565b5b9050919050565b606060008054610738906142ec565b80601f0160208091040260200160405190810160405280929190818152602001828054610764906142ec565b80156107b15780601f10610786576101008083540402835291602001916107b1565b820191906000526020600020905b81548152906001019060200180831161079457829003601f168201915b5050505050905090565b60006107c682611c84565b610805576040517f08c379a00000000000000000000000000000000000000000000000000000000081526004016107fc90613f00565b60405180910390fd5b6004600083815260200190815260200160002060009054906101000a900473ffffffffffffffffffffffffffffffffffffffff169050919050565b600061084b82610ddb565b90508073ffffffffffffffffffffffffffffffffffffffff168373ffffffffffffffffffffffffffffffffffffffff1614156108bc576040517f08c379a00000000000000000000000000000000000000000000000000000000081526004016108b390613f40565b60405180910390fd5b8073ffffffffffffffffffffffffffffffffffffffff166108db611cf0565b73ffffffffffffffffffffffffffffffffffffffff16148061090a575061090981610904611cf0565b611918565b5b610949576040517f08c379a000000000000000000000000000000000000000000000000000000000815260040161094090613e00565b60405180910390fd5b6109538383611cf8565b505050565b60608282600073ffffffffffffffffffffffffffffffffffffffff16600c8383604051610986929190613a6e565b908152602001604051809103902060009054906101000a900473ffffffffffffffffffffffffffffffffffffffff1673ffffffffffffffffffffffffffffffffffffffff161415610a0c576040517f08c379a0000000000000000000000000000000000000000000000000000000008152600401610a0390613f80565b60405180910390fd5b600d8585604051610a1e929190613a6e565b90815260200160405180910390208054610a37906142ec565b80601f0160208091040260200160405190810160405280929190818152602001828054610a63906142ec565b8015610ab05780601f10610a8557610100808354040283529160200191610ab0565b820191906000526020600020905b815481529060010190602001808311610a9357829003601f168201915b50505050509250505092915050565b610ad0610aca611cf0565b82611db1565b610b0f576040517f08c379a0000000000000000000000000000000000000000000000000000000008152600401610b0690613f60565b60405180910390fd5b610b1a838383611e8f565b505050565b600c818051602081018201805184825260208301602085012081835280955050505050506000915054906101000a900473ffffffffffffffffffffffffffffffffffffffff1681565b60098054610b75906142ec565b80601f0160208091040260200160405190810160405280929190818152602001828054610ba1906142ec565b8015610bee5780601f10610bc357610100808354040283529160200191610bee565b820191906000526020600020905b815481529060010190602001808311610bd157829003601f168201915b505050505081565b600760009054906101000a900473ffffffffffffffffffffffffffffffffffffffff1673ffffffffffffffffffffffffffffffffffffffff163373ffffffffffffffffffffffffffffffffffffffff1614610c5057600080fd5b600047905060003373ffffffffffffffffffffffffffffffffffffffff1682604051610c7b90613b8c565b60006040518083038185875af1925050503d8060008114610cb8576040519150601f19603f3d011682016040523d82523d6000602084013e610cbd565b606091505b5050905080610d01576040517f08c379a0000000000000000000000000000000000000000000000000000000008152600401610cf890613d20565b60405180910390fd5b5050565b610d20838383604051806020016040528060008152506110c7565b505050565b600d818051602081018201805184825260208301602085012081835280955050505050506000915090508054610d5a906142ec565b80601f0160208091040260200160405190810160405280929190818152602001828054610d86906142ec565b8015610dd35780601f10610da857610100808354040283529160200191610dd3565b820191906000526020600020905b815481529060010190602001808311610db657829003601f168201915b505050505081565b6000806002600084815260200190815260200160002060009054906101000a900473ffffffffffffffffffffffffffffffffffffffff169050600073ffffffffffffffffffffffffffffffffffffffff168173ffffffffffffffffffffffffffffffffffffffff161415610e84576040517f08c379a0000000000000000000000000000000000000000000000000000000008152600401610e7b90613e60565b60405180910390fd5b80915050919050565b60008073ffffffffffffffffffffffffffffffffffffffff168273ffffffffffffffffffffffffffffffffffffffff161415610efe576040517f08c379a0000000000000000000000000000000000000000000000000000000008152600401610ef590613e20565b60405180910390fd5b600360008373ffffffffffffffffffffffffffffffffffffffff1673ffffffffffffffffffffffffffffffffffffffff168152602001908152602001600020549050919050565b600760009054906101000a900473ffffffffffffffffffffffffffffffffffffffff1681565b606060018054610f7a906142ec565b80601f0160208091040260200160405190810160405280929190818152602001828054610fa6906142ec565b8015610ff35780601f10610fc857610100808354040283529160200191610ff3565b820191906000526020600020905b815481529060010190602001808311610fd657829003601f168201915b5050505050905090565b6000600361104e84848080601f016020809104026020016040519081016040528093929190818152602001838380828437600081840152601f19601f820116905080830192505050505050506120f6565b101580156110a95750600a6110a684848080601f016020809104026020016040519081016040528093929190818152602001838380828437600081840152601f19601f820116905080830192505050505050506120f6565b11155b905092915050565b6110c36110bc611cf0565b83836122d0565b5050565b6110d86110d2611cf0565b83611db1565b611117576040517f08c379a000000000000000000000000000000000000000000000000000000000815260040161110e90613f60565b60405180910390fd5b6111238484848461243d565b50505050565b60008282600073ffffffffffffffffffffffffffffffffffffffff16600c8383604051611157929190613a6e565b908152602001604051809103902060009054906101000a900473ffffffffffffffffffffffffffffffffffffffff1673ffffffffffffffffffffffffffffffffffffffff1614156111dd576040517f08c379a00000000000000000000000000000000000000000000000000000000081526004016111d490613f80565b60405180910390fd5b600c85856040516111ef929190613a6e565b908152602001604051809103902060009054906101000a900473ffffffffffffffffffffffffffffffffffffffff169250505092915050565b8383600073ffffffffffffffffffffffffffffffffffffffff16600c8383604051611254929190613a6e565b908152602001604051809103902060009054906101000a900473ffffffffffffffffffffffffffffffffffffffff1673ffffffffffffffffffffffffffffffffffffffff1614156112da576040517f08c379a00000000000000000000000000000000000000000000000000000000081526004016112d190613f80565b60405180910390fd5b3373ffffffffffffffffffffffffffffffffffffffff16600c8787604051611303929190613a6e565b908152602001604051809103902060009054906101000a900473ffffffffffffffffffffffffffffffffffffffff1673ffffffffffffffffffffffffffffffffffffffff1614611388576040517f08c379a000000000000000000000000000000000000000000000000000000000815260040161137f90613d00565b60405180910390fd5b8383600d888860405161139c929190613a6e565b908152602001604051809103902091906113b7929190612e3c565b50505050505050565b60606113cb82611c84565b61140a576040517f08c379a000000000000000000000000000000000000000000000000000000000815260040161140190613ee0565b60405180910390fd5b600060066000848152602001908152602001600020805461142a906142ec565b80601f0160208091040260200160405190810160405280929190818152602001828054611456906142ec565b80156114a35780601f10611478576101008083540402835291602001916114a3565b820191906000526020600020905b81548152906001019060200180831161148657829003601f168201915b5050505050905060006114b4612499565b90506000815114156114ca57819250505061150d565b6000825111156114ff5780826040516020016114e7929190613ab8565b6040516020818303038152906040529250505061150d565b611508846124b0565b925050505b919050565b600073ffffffffffffffffffffffffffffffffffffffff16600c838360405161153c929190613a6e565b908152602001604051809103902060009054906101000a900473ffffffffffffffffffffffffffffffffffffffff1673ffffffffffffffffffffffffffffffffffffffff16146115c1576040517f08c379a00000000000000000000000000000000000000000000000000000000081526004016115b890613ec0565b60405180910390fd5b6115cb8282610ffd565b61160e5781816040517f7f19f48d000000000000000000000000000000000000000000000000000000008152600401611605929190613c60565b60405180910390fd5b600061161a8383611b3e565b90508034101561165f576040517f08c379a000000000000000000000000000000000000000000000000000000000815260040161165690613fa0565b60405180910390fd5b60008383600960405160200161167793929190613a87565b60405160208183030381529060405290506000600a82600b6040516020016116a193929190613adc565b604051602081830303815290604052905060006116be6008612557565b9050600061170f87878080601f016020809104026020016040519081016040528093929190818152602001838380828437600081840152601f19601f820116905080830192505050505050506120f6565b9050600061171c82612565565b9050611810604051806060016040528060318152602001614bac6031913989898080601f016020809104026020016040519081016040528093929190818152602001838380828437600081840152601f19601f820116905080830192505050505050506009805461178c906142ec565b80601f01602080910402602001604051908101604052809291908181526020018280546117b8906142ec565b80156118055780601f106117da57610100808354040283529160200191611805565b820191906000526020600020905b8154815290600101906020018083116117e857829003601f168201915b505050505086612712565b60006118468661181f876127b4565b8460405160200161183293929190613b0d565b6040516020818303038152906040526127b4565b905060008160405160200161185b9190613b6a565b60405160208183030381529060405290506118763386612972565b6118808582612990565b33600c8b8b604051611893929190613a6e565b908152602001604051809103902060006101000a81548173ffffffffffffffffffffffffffffffffffffffff021916908373ffffffffffffffffffffffffffffffffffffffff1602179055508989600e60008881526020019081526020016000209190611901929190612e3c565b5061190c6008612a04565b50505050505050505050565b6000600560008473ffffffffffffffffffffffffffffffffffffffff1673ffffffffffffffffffffffffffffffffffffffff16815260200190815260200160002060008373ffffffffffffffffffffffffffffffffffffffff1673ffffffffffffffffffffffffffffffffffffffff16815260200190815260200160002060009054906101000a900460ff16905092915050565b606060006119ba6008612557565b67ffffffffffffffff8111156119f9577f4e487b7100000000000000000000000000000000000000000000000000000000600052604160045260246000fd5b604051908082528060200260200182016040528015611a2c57816020015b6060815260200190600190039081611a175790505b50905060005b611a3c6008612557565b811015611b3657600e60008281526020019081526020016000208054611a61906142ec565b80601f0160208091040260200160405190810160405280929190818152602001828054611a8d906142ec565b8015611ada5780601f10611aaf57610100808354040283529160200191611ada565b820191906000526020600020905b815481529060010190602001808311611abd57829003601f168201915b5050505050828281518110611b18577f4e487b7100000000000000000000000000000000000000000000000000000000600052603260045260246000fd5b60200260200101819052508080611b2e9061434f565b915050611a32565b508091505090565b600080611b8e84848080601f016020809104026020016040519081016040528093929190818152602001838380828437600081840152601f19601f820116905080830192505050505050506120f6565b905060008111611bd3576040517f08c379a0000000000000000000000000000000000000000000000000000000008152600401611bca90613e40565b60405180910390fd5b6003811415611bed576706f05b59d3b20000915050611c14565b6004811415611c0757670429d069189e0000915050611c14565b67016345785d8a00009150505b92915050565b60007f01ffc9a7000000000000000000000000000000000000000000000000000000007bffffffffffffffffffffffffffffffffffffffffffffffffffffffff1916827bffffffffffffffffffffffffffffffffffffffffffffffffffffffff1916149050919050565b60008073ffffffffffffffffffffffffffffffffffffffff166002600084815260200190815260200160002060009054906101000a900473ffffffffffffffffffffffffffffffffffffffff1673ffffffffffffffffffffffffffffffffffffffff1614159050919050565b600033905090565b816004600083815260200190815260200160002060006101000a81548173ffffffffffffffffffffffffffffffffffffffff021916908373ffffffffffffffffffffffffffffffffffffffff160217905550808273ffffffffffffffffffffffffffffffffffffffff16611d6b83610ddb565b73ffffffffffffffffffffffffffffffffffffffff167f8c5be1e5ebec7d5bd14f71427d1e84f3dd0314c0f7b2291e5b200ac8c7c3b92560405160405180910390a45050565b6000611dbc82611c84565b611dfb576040517f08c379a0000000000000000000000000000000000000000000000000000000008152600401611df290613de0565b60405180910390fd5b6000611e0683610ddb565b90508073ffffffffffffffffffffffffffffffffffffffff168473ffffffffffffffffffffffffffffffffffffffff161480611e485750611e478185611918565b5b80611e8657508373ffffffffffffffffffffffffffffffffffffffff16611e6e846107bb565b73ffffffffffffffffffffffffffffffffffffffff16145b91505092915050565b8273ffffffffffffffffffffffffffffffffffffffff16611eaf82610ddb565b73ffffffffffffffffffffffffffffffffffffffff1614611f05576040517f08c379a0000000000000000000000000000000000000000000000000000000008152600401611efc90613d60565b60405180910390fd5b600073ffffffffffffffffffffffffffffffffffffffff168273ffffffffffffffffffffffffffffffffffffffff161415611f75576040517f08c379a0000000000000000000000000000000000000000000000000000000008152600401611f6c90613da0565b60405180910390fd5b611f80838383612a1a565b611f8b600082611cf8565b6001600360008573ffffffffffffffffffffffffffffffffffffffff1673ffffffffffffffffffffffffffffffffffffffff1681526020019081526020016000206000828254611fdb91906141f0565b925050819055506001600360008473ffffffffffffffffffffffffffffffffffffffff1673ffffffffffffffffffffffffffffffffffffffff1681526020019081526020016000206000828254612032919061410f565b92505081905550816002600083815260200190815260200160002060006101000a81548173ffffffffffffffffffffffffffffffffffffffff021916908373ffffffffffffffffffffffffffffffffffffffff160217905550808273ffffffffffffffffffffffffffffffffffffffff168473ffffffffffffffffffffffffffffffffffffffff167fddf252ad1be2c89b69c2b068fc378daa952ba7f163c4a11628f55a4df523b3ef60405160405180910390a46120f1838383612a1f565b505050565b60008060008084519050600092505b808210156122c5576000858381518110612148577f4e487b7100000000000000000000000000000000000000000000000000000000600052603260045260246000fd5b602001015160f81c60f81b9050608060f81b817effffffffffffffffffffffffffffffffffffffffffffffffffffffffffffff1916101561219657828061218e9061434f565b9350506122b1565b60e060f81b817effffffffffffffffffffffffffffffffffffffffffffffffffffffffffffff191610156121d8576002836121d1919061410f565b92506122b0565b60f060f81b817effffffffffffffffffffffffffffffffffffffffffffffffffffffffffffff1916101561221a57600383612213919061410f565b92506122af565b60f8801b817effffffffffffffffffffffffffffffffffffffffffffffffffffffffffffff1916101561225b57600483612254919061410f565b92506122ae565b60fc60f81b817effffffffffffffffffffffffffffffffffffffffffffffffffffffffffffff1916101561229d57600583612296919061410f565b92506122ad565b6006836122aa919061410f565b92505b5b5b5b5b5082806122bd9061434f565b935050612105565b829350505050919050565b8173ffffffffffffffffffffffffffffffffffffffff168373ffffffffffffffffffffffffffffffffffffffff16141561233f576040517f08c379a000000000000000000000000000000000000000000000000000000000815260040161233690613dc0565b60405180910390fd5b80600560008573ffffffffffffffffffffffffffffffffffffffff1673ffffffffffffffffffffffffffffffffffffffff16815260200190815260200160002060008473ffffffffffffffffffffffffffffffffffffffff1673ffffffffffffffffffffffffffffffffffffffff16815260200190815260200160002060006101000a81548160ff0219169083151502179055508173ffffffffffffffffffffffffffffffffffffffff168373ffffffffffffffffffffffffffffffffffffffff167f17307eab39ab6107e8899845ad3d59bd9653f200f220920489ca2b5937696c31836040516124309190613c45565b60405180910390a3505050565b612448848484611e8f565b61245484848484612a24565b612493576040517f08c379a000000000000000000000000000000000000000000000000000000000815260040161248a90613d40565b60405180910390fd5b50505050565b606060405180602001604052806000815250905090565b60606124bb82611c84565b6124fa576040517f08c379a00000000000000000000000000000000000000000000000000000000081526004016124f190613f20565b60405180910390fd5b6000612504612499565b90506000815111612524576040518060200160405280600081525061254f565b8061252e84612565565b60405160200161253f929190613ab8565b6040516020818303038152906040525b915050919050565b600081600001549050919050565b606060008214156125ad576040518060400160405280600181526020017f3000000000000000000000000000000000000000000000000000000000000000815250905061270d565b600082905060005b600082146125df5780806125c89061434f565b915050600a826125d89190614165565b91506125b5565b60008167ffffffffffffffff811115612621577f4e487b7100000000000000000000000000000000000000000000000000000000600052604160045260246000fd5b6040519080825280601f01601f1916602001820160405280156126535781602001600182028036833780820191505090505b5090505b600085146127065760018261266c91906141f0565b9150600a8561267b9190614398565b6030612687919061410f565b60f81b8183815181106126c3577f4e487b7100000000000000000000000000000000000000000000000000000000600052603260045260246000fd5b60200101907effffffffffffffffffffffffffffffffffffffffffffffffffffffffffffff1916908160001a905350600a856126ff9190614165565b9450612657565b8093505050505b919050565b6127ae8484848460405160240161272c9493929190613ca6565b6040516020818303038152906040527f9fd009f5000000000000000000000000000000000000000000000000000000007bffffffffffffffffffffffffffffffffffffffffffffffffffffffff19166020820180517bffffffffffffffffffffffffffffffffffffffffffffffffffffffff8381831617835250505050612bbb565b50505050565b606060008251905060008114156127dd576040518060200160405280600081525091505061296d565b600060036002836127ee919061410f565b6127f89190614165565b60046128049190614196565b90506000602082612815919061410f565b67ffffffffffffffff811115612854577f4e487b7100000000000000000000000000000000000000000000000000000000600052604160045260246000fd5b6040519080825280601f01601f1916602001820160405280156128865781602001600182028036833780820191505090505b5090506000604051806060016040528060408152602001614bdd604091399050600181016020830160005b8681101561292a5760038101905062ffffff818a015116603f8160121c168401518060081b905060ff603f83600c1c1686015116810190508060081b905060ff603f8360061c1686015116810190508060081b905060ff603f831686015116810190508060e01b905080845260048401935050506128b1565b50600386066001811461294457600281146129545761295f565b613d3d60f01b600283035261295f565b603d60f81b60018303525b508484525050819450505050505b919050565b61298c828260405180602001604052806000815250612be4565b5050565b61299982611c84565b6129d8576040517f08c379a00000000000000000000000000000000000000000000000000000000081526004016129cf90613e80565b60405180910390fd5b806006600084815260200190815260200160002090805190602001906129ff929190612ec2565b505050565b6001816000016000828254019250508190555050565b505050565b505050565b6000612a458473ffffffffffffffffffffffffffffffffffffffff16612c3f565b15612bae578373ffffffffffffffffffffffffffffffffffffffff1663150b7a02612a6e611cf0565b8786866040518563ffffffff1660e01b8152600401612a909493929190613bd7565b602060405180830381600087803b158015612aaa57600080fd5b505af1925050508015612adb57506040513d601f19601f82011682018060405250810190612ad891906132b8565b60015b612b5e573d8060008114612b0b576040519150601f19603f3d011682016040523d82523d6000602084013e612b10565b606091505b50600081511415612b56576040517f08c379a0000000000000000000000000000000000000000000000000000000008152600401612b4d90613d40565b60405180910390fd5b805181602001fd5b63150b7a0260e01b7bffffffffffffffffffffffffffffffffffffffffffffffffffffffff1916817bffffffffffffffffffffffffffffffffffffffffffffffffffffffff191614915050612bb3565b600190505b949350505050565b60008151905060006a636f6e736f6c652e6c6f679050602083016000808483855afa5050505050565b612bee8383612c62565b612bfb6000848484612a24565b612c3a576040517f08c379a0000000000000000000000000000000000000000000000000000000008152600401612c3190613d40565b60405180910390fd5b505050565b6000808273ffffffffffffffffffffffffffffffffffffffff163b119050919050565b600073ffffffffffffffffffffffffffffffffffffffff168273ffffffffffffffffffffffffffffffffffffffff161415612cd2576040517f08c379a0000000000000000000000000000000000000000000000000000000008152600401612cc990613ea0565b60405180910390fd5b612cdb81611c84565b15612d1b576040517f08c379a0000000000000000000000000000000000000000000000000000000008152600401612d1290613d80565b60405180910390fd5b612d2760008383612a1a565b6001600360008473ffffffffffffffffffffffffffffffffffffffff1673ffffffffffffffffffffffffffffffffffffffff1681526020019081526020016000206000828254612d77919061410f565b92505081905550816002600083815260200190815260200160002060006101000a81548173ffffffffffffffffffffffffffffffffffffffff021916908373ffffffffffffffffffffffffffffffffffffffff160217905550808273ffffffffffffffffffffffffffffffffffffffff16600073ffffffffffffffffffffffffffffffffffffffff167fddf252ad1be2c89b69c2b068fc378daa952ba7f163c4a11628f55a4df523b3ef60405160405180910390a4612e3860008383612a1f565b5050565b828054612e48906142ec565b90600052602060002090601f016020900481019282612e6a5760008555612eb1565b82601f10612e8357803560ff1916838001178555612eb1565b82800160010185558215612eb1579182015b82811115612eb0578235825591602001919060010190612e95565b5b509050612ebe9190612f48565b5090565b828054612ece906142ec565b90600052602060002090601f016020900481019282612ef05760008555612f37565b82601f10612f0957805160ff1916838001178555612f37565b82800160010185558215612f37579182015b82811115612f36578251825591602001919060010190612f1b565b5b509050612f449190612f48565b5090565b5b80821115612f61576000816000905550600101612f49565b5090565b6000612f78612f7384614000565b613fdb565b905082815260208101848484011115612f9057600080fd5b612f9b8482856142aa565b509392505050565b6000612fb6612fb184614031565b613fdb565b905082815260208101848484011115612fce57600080fd5b612fd98482856142aa565b509392505050565b600081359050612ff081614b4f565b92915050565b60008135905061300581614b66565b92915050565b60008135905061301a81614b7d565b92915050565b60008151905061302f81614b7d565b92915050565b600082601f83011261304657600080fd5b8135613056848260208601612f65565b91505092915050565b60008083601f84011261307157600080fd5b8235905067ffffffffffffffff81111561308a57600080fd5b6020830191508360018202830111156130a257600080fd5b9250929050565b600082601f8301126130ba57600080fd5b81356130ca848260208601612fa3565b91505092915050565b6000813590506130e281614b94565b92915050565b6000602082840312156130fa57600080fd5b600061310884828501612fe1565b91505092915050565b6000806040838503121561312457600080fd5b600061313285828601612fe1565b925050602061314385828601612fe1565b9150509250929050565b60008060006060848603121561316257600080fd5b600061317086828701612fe1565b935050602061318186828701612fe1565b9250506040613192868287016130d3565b9150509250925092565b600080600080608085870312156131b257600080fd5b60006131c087828801612fe1565b94505060206131d187828801612fe1565b93505060406131e2878288016130d3565b925050606085013567ffffffffffffffff8111156131ff57600080fd5b61320b87828801613035565b91505092959194509250565b6000806040838503121561322a57600080fd5b600061323885828601612fe1565b925050602061324985828601612ff6565b9150509250929050565b6000806040838503121561326657600080fd5b600061327485828601612fe1565b9250506020613285858286016130d3565b9150509250929050565b6000602082840312156132a157600080fd5b60006132af8482850161300b565b91505092915050565b6000602082840312156132ca57600080fd5b60006132d884828501613020565b91505092915050565b600080602083850312156132f457600080fd5b600083013567ffffffffffffffff81111561330e57600080fd5b61331a8582860161305f565b92509250509250929050565b6000806000806040858703121561333c57600080fd5b600085013567ffffffffffffffff81111561335657600080fd5b6133628782880161305f565b9450945050602085013567ffffffffffffffff81111561338157600080fd5b61338d8782880161305f565b925092505092959194509250565b6000602082840312156133ad57600080fd5b600082013567ffffffffffffffff8111156133c757600080fd5b6133d3848285016130a9565b91505092915050565b6000602082840312156133ee57600080fd5b60006133fc848285016130d3565b91505092915050565b60006134118383613546565b905092915050565b61342281614236565b82525050565b61343181614224565b82525050565b600061344282614087565b61344c81856140b5565b93508360208202850161345e85614062565b8060005b8581101561349a578484038952815161347b8582613405565b9450613486836140a8565b925060208a01995050600181019050613462565b50829750879550505050505092915050565b6134b581614248565b82525050565b60006134c682614092565b6134d081856140c6565b93506134e08185602086016142b9565b6134e981614485565b840191505092915050565b600061350083856140f3565b935061350d8385846142aa565b61351683614485565b840190509392505050565b600061352d8385614104565b935061353a8385846142aa565b82840190509392505050565b60006135518261409d565b61355b81856140e2565b935061356b8185602086016142b9565b61357481614485565b840191505092915050565b600061358a8261409d565b61359481856140f3565b93506135a48185602086016142b9565b6135ad81614485565b840191505092915050565b60006135c38261409d565b6135cd8185614104565b93506135dd8185602086016142b9565b80840191505092915050565b600081546135f6816142ec565b6136008186614104565b9450600182166000811461361b576001811461362c5761365f565b60ff1983168652818601935061365f565b61363585614072565b60005b8381101561365757815481890152600182019150602081019050613638565b838801955050505b50505092915050565b6000613675601a836140f3565b915061368082614496565b602082019050919050565b6000613698600983614104565b91506136a3826144bf565b600982019050919050565b60006136bb6018836140f3565b91506136c6826144e8565b602082019050919050565b60006136de6032836140f3565b91506136e982614511565b604082019050919050565b60006137016025836140f3565b915061370c82614560565b604082019050919050565b6000613724601c836140f3565b915061372f826145af565b602082019050919050565b60006137476024836140f3565b9150613752826145d8565b604082019050919050565b600061376a6019836140f3565b915061377582614627565b602082019050919050565b600061378d602c836140f3565b915061379882614650565b604082019050919050565b60006137b06038836140f3565b91506137bb8261469f565b604082019050919050565b60006137d3600183614104565b91506137de826146ee565b600182019050919050565b60006137f6602a836140f3565b915061380182614717565b604082019050919050565b6000613819600e836140f3565b915061382482614766565b602082019050919050565b600061383c6029836140f3565b91506138478261478f565b604082019050919050565b600061385f602e836140f3565b915061386a826147de565b604082019050919050565b6000613882600283614104565b915061388d8261482d565b600282019050919050565b60006138a56020836140f3565b91506138b082614856565b602082019050919050565b60006138c8601e836140f3565b91506138d38261487f565b602082019050919050565b60006138eb6031836140f3565b91506138f6826148a8565b604082019050919050565b600061390e602c836140f3565b9150613919826148f7565b604082019050919050565b6000613931605883614104565b915061393c82614946565b605882019050919050565b6000613954602f836140f3565b915061395f826149bb565b604082019050919050565b60006139776021836140f3565b915061398282614a0a565b604082019050919050565b600061399a601d83614104565b91506139a582614a59565b601d82019050919050565b60006139bd600c83614104565b91506139c882614a82565b600c82019050919050565b60006139e06000836140d7565b91506139eb82614aab565b600082019050919050565b6000613a036031836140f3565b9150613a0e82614aae565b604082019050919050565b6000613a26601d836140f3565b9150613a3182614afd565b602082019050919050565b6000613a496017836140f3565b9150613a5482614b26565b602082019050919050565b613a68816142a0565b82525050565b6000613a7b828486613521565b91508190509392505050565b6000613a94828587613521565b9150613a9f826137c6565b9150613aab82846135e9565b9150819050949350505050565b6000613ac482856135b8565b9150613ad082846135b8565b91508190509392505050565b6000613ae882866135e9565b9150613af482856135b8565b9150613b0082846135e9565b9150819050949350505050565b6000613b188261368b565b9150613b2482866135b8565b9150613b2f82613924565b9150613b3b82856135b8565b9150613b46826139b0565b9150613b5282846135b8565b9150613b5d82613875565b9150819050949350505050565b6000613b758261398d565b9150613b8182846135b8565b915081905092915050565b6000613b97826139d3565b9150819050919050565b6000602082019050613bb66000830184613428565b92915050565b6000602082019050613bd16000830184613419565b92915050565b6000608082019050613bec6000830187613428565b613bf96020830186613428565b613c066040830185613a5f565b8181036060830152613c1881846134bb565b905095945050505050565b60006020820190508181036000830152613c3d8184613437565b905092915050565b6000602082019050613c5a60008301846134ac565b92915050565b60006020820190508181036000830152613c7b8184866134f4565b90509392505050565b60006020820190508181036000830152613c9e818461357f565b905092915050565b60006080820190508181036000830152613cc0818761357f565b90508181036020830152613cd4818661357f565b90508181036040830152613ce8818561357f565b9050613cf76060830184613a5f565b95945050505050565b60006020820190508181036000830152613d1981613668565b9050919050565b60006020820190508181036000830152613d39816136ae565b9050919050565b60006020820190508181036000830152613d59816136d1565b9050919050565b60006020820190508181036000830152613d79816136f4565b9050919050565b60006020820190508181036000830152613d9981613717565b9050919050565b60006020820190508181036000830152613db98161373a565b9050919050565b60006020820190508181036000830152613dd98161375d565b9050919050565b60006020820190508181036000830152613df981613780565b9050919050565b60006020820190508181036000830152613e19816137a3565b9050919050565b60006020820190508181036000830152613e39816137e9565b9050919050565b60006020820190508181036000830152613e598161380c565b9050919050565b60006020820190508181036000830152613e798161382f565b9050919050565b60006020820190508181036000830152613e9981613852565b9050919050565b60006020820190508181036000830152613eb981613898565b9050919050565b60006020820190508181036000830152613ed9816138bb565b9050919050565b60006020820190508181036000830152613ef9816138de565b9050919050565b60006020820190508181036000830152613f1981613901565b9050919050565b60006020820190508181036000830152613f3981613947565b9050919050565b60006020820190508181036000830152613f598161396a565b9050919050565b60006020820190508181036000830152613f79816139f6565b9050919050565b60006020820190508181036000830152613f9981613a19565b9050919050565b60006020820190508181036000830152613fb981613a3c565b9050919050565b6000602082019050613fd56000830184613a5f565b92915050565b6000613fe5613ff6565b9050613ff1828261431e565b919050565b6000604051905090565b600067ffffffffffffffff82111561401b5761401a614456565b5b61402482614485565b9050602081019050919050565b600067ffffffffffffffff82111561404c5761404b614456565b5b61405582614485565b9050602081019050919050565b6000819050602082019050919050565b60008190508160005260206000209050919050565b600081519050919050565b600081519050919050565b600081519050919050565b6000602082019050919050565b600082825260208201905092915050565b600082825260208201905092915050565b600081905092915050565b600082825260208201905092915050565b600082825260208201905092915050565b600081905092915050565b600061411a826142a0565b9150614125836142a0565b9250827fffffffffffffffffffffffffffffffffffffffffffffffffffffffffffffffff0382111561415a576141596143c9565b5b828201905092915050565b6000614170826142a0565b915061417b836142a0565b92508261418b5761418a6143f8565b5b828204905092915050565b60006141a1826142a0565b91506141ac836142a0565b9250817fffffffffffffffffffffffffffffffffffffffffffffffffffffffffffffffff04831182151516156141e5576141e46143c9565b5b828202905092915050565b60006141fb826142a0565b9150614206836142a0565b925082821015614219576142186143c9565b5b828203905092915050565b600061422f82614280565b9050919050565b600061424182614280565b9050919050565b60008115159050919050565b60007fffffffff0000000000000000000000000000000000000000000000000000000082169050919050565b600073ffffffffffffffffffffffffffffffffffffffff82169050919050565b6000819050919050565b82818337600083830152505050565b60005b838110156142d75780820151818401526020810190506142bc565b838111156142e6576000848401525b50505050565b6000600282049050600182168061430457607f821691505b6020821081141561431857614317614427565b5b50919050565b61432782614485565b810181811067ffffffffffffffff8211171561434657614345614456565b5b80604052505050565b600061435a826142a0565b91507fffffffffffffffffffffffffffffffffffffffffffffffffffffffffffffffff82141561438d5761438c6143c9565b5b600182019050919050565b60006143a3826142a0565b91506143ae836142a0565b9250826143be576143bd6143f8565b5b828206905092915050565b7f4e487b7100000000000000000000000000000000000000000000000000000000600052601160045260246000fd5b7f4e487b7100000000000000000000000000000000000000000000000000000000600052601260045260246000fd5b7f4e487b7100000000000000000000000000000000000000000000000000000000600052602260045260246000fd5b7f4e487b7100000000000000000000000000000000000000000000000000000000600052604160045260246000fd5b6000601f19601f8301169050919050565b7f596f7520646f206e6f74206f776e207468697320646f6d61696e000000000000600082015250565b7f7b226e616d65223a220000000000000000000000000000000000000000000000600082015250565b7f4661696c656420746f207769746864726177206d617469630000000000000000600082015250565b7f4552433732313a207472616e7366657220746f206e6f6e20455243373231526560008201527f63656976657220696d706c656d656e7465720000000000000000000000000000602082015250565b7f4552433732313a207472616e736665722066726f6d20696e636f72726563742060008201527f6f776e6572000000000000000000000000000000000000000000000000000000602082015250565b7f4552433732313a20746f6b656e20616c7265616479206d696e74656400000000600082015250565b7f4552433732313a207472616e7366657220746f20746865207a65726f2061646460008201527f7265737300000000000000000000000000000000000000000000000000000000602082015250565b7f4552433732313a20617070726f766520746f2063616c6c657200000000000000600082015250565b7f4552433732313a206f70657261746f7220717565727920666f72206e6f6e657860008201527f697374656e7420746f6b656e0000000000000000000000000000000000000000602082015250565b7f4552433732313a20617070726f76652063616c6c6572206973206e6f74206f7760008201527f6e6572206e6f7220617070726f76656420666f7220616c6c0000000000000000602082015250565b7f2e00000000000000000000000000000000000000000000000000000000000000600082015250565b7f4552433732313a2062616c616e636520717565727920666f7220746865207a6560008201527f726f206164647265737300000000000000000000000000000000000000000000602082015250565b7f4e6f20646f6d61696e206e616d65000000000000000000000000000000000000600082015250565b7f4552433732313a206f776e657220717565727920666f72206e6f6e657869737460008201527f656e7420746f6b656e0000000000000000000000000000000000000000000000602082015250565b7f45524337323155524953746f726167653a2055524920736574206f66206e6f6e60008201527f6578697374656e7420746f6b656e000000000000000000000000000000000000602082015250565b7f227d000000000000000000000000000000000000000000000000000000000000600082015250565b7f4552433732313a206d696e7420746f20746865207a65726f2061646472657373600082015250565b7f5468697320646f6d61696e20697320616c72656164792074616b656e21210000600082015250565b7f45524337323155524953746f726167653a2055524920717565727920666f722060008201527f6e6f6e6578697374656e7420746f6b656e000000000000000000000000000000602082015250565b7f4552433732313a20617070726f76656420717565727920666f72206e6f6e657860008201527f697374656e7420746f6b656e0000000000000000000000000000000000000000602082015250565b7f222c226465736372697074696f6e223a224120646f6d61696e206f6e2074686560008201527f205465746173204e616d652053657276696365222c22696d616765223a22646160208201527f74613a696d6167652f7376672b786d6c3b6261736536342c0000000000000000604082015250565b7f4552433732314d657461646174613a2055524920717565727920666f72206e6f60008201527f6e6578697374656e7420746f6b656e0000000000000000000000000000000000602082015250565b7f4552433732313a20617070726f76616c20746f2063757272656e74206f776e6560008201527f7200000000000000000000000000000000000000000000000000000000000000602082015250565b7f646174613a6170706c69636174696f6e2f6a736f6e3b6261736536342c000000600082015250565b7f222c226c656e677468223a220000000000000000000000000000000000000000600082015250565b50565b7f4552433732313a207472616e736665722063616c6c6572206973206e6f74206f60008201527f776e6572206e6f7220617070726f766564000000000000000000000000000000602082015250565b7f5468697320646f6d61696e206973206e6f742072656769737465726564000000600082015250565b7f4e6f7420656e6f756768206d6174696320706169642121000000000000000000600082015250565b614b5881614224565b8114614b6357600080fd5b50565b614b6f81614248565b8114614b7a57600080fd5b50565b614b8681614254565b8114614b9157600080fd5b50565b614b9d816142a0565b8114614ba857600080fd5b5056fe5265676973746572696e672025732e2573206f6e2074686520636f6e7472616374207769746820746f6b656e49642025644142434445464748494a4b4c4d4e4f505152535455565758595a6162636465666768696a6b6c6d6e6f707172737475767778797a303132333435363738392b2fa26469706673582212203baca74ed262b6e56262a19006bd159afd0f836a0491752eddaa252b0c764e1b64736f6c634300080400333c73766720786d6c6e733d22687474703a2f2f7777772e77332e6f72672f323030302f737667222077696474683d2232373022206865696768743d22323730222066696c6c3d226e6f6e65223e3c706174682066696c6c3d2275726c282342292220643d224d302030683237307632373048307a222f3e3c646566733e3c66696c7465722069643d22612220636f6c6f722d696e746572706f6c6174696f6e2d66696c746572733d2273524742222066696c746572556e6974733d227573657253706163654f6e55736522206865696768743d22323730222077696474683d22323730223e3c666544726f70536861646f772064783d2230222064793d22312220737464446576696174696f6e3d22322220666c6f6f642d6f7061636974793d222e323235222077696474683d223230302522206865696768743d2232303025222f3e3c2f66696c7465723e3c2f646566733e3c7061746820643d226d343237203236342d32352d34382d39362038305a222066696c6c3d222339363635656222207374726f6b653d2223393636356562222f3e3c7061746820643d224d34303220323136483239386c382038305a222066696c6c3d222361373763656622207374726f6b653d2223613737636566222f3e3c7061746820643d226d33303620323936203130372039322031342d3132345a222066696c6c3d222338643538653922207374726f6b653d2223386435386539222f3e3c7061746820643d226d323938203231362d37352038392038332d395a222066696c6c3d222336363333633022207374726f6b653d2223363633336330222f3e3c7061746820643d226d333036203239362d313720313033203132342d31315a222066696c6c3d222339363635656222207374726f6b653d2223393636356562222f3e3c7061746820643d226d323233203330352036362039342031372d3130335a6d3139302038332036362d31322d35322d3131325a222066696c6c3d222336303330623522207374726f6b653d2223363033306235222f3e3c7061746820643d226d353338203238342d31312d34382d3130302032385a222066696c6c3d222338343463653622207374726f6b653d2223383434636536222f3e3c7061746820643d226d34323720323634203130302d32382d3132352d32305a4d3330372039326c2d3937203130312038382032335a222066696c6c3d222335393263613922207374726f6b653d2223353932636139222f3e3c7061746820643d226d323938203231362d38382d3233203133203131325a4d353133203631203338302039346c3232203132325a222066696c6c3d222338643538653922207374726f6b653d2223386435386539222f3e3c7061746820643d224d34303220323136203338302039346c2d3832203132325a222066696c6c3d222337343362643822207374726f6b653d2223373433626438222f3e3c7061746820643d226d343739203337362035392d39322d3131312d32305a222066696c6c3d222336303330623522207374726f6b653d2223363033306235222f3e3c7061746820643d226d3338302039342d37332d322d39203132345a222066696c6c3d222335393263613922207374726f6b653d2223353932636139222f3e3c7061746820643d226d3330372039322d3130382032312031312038305a222066696c6c3d222361373763656622207374726f6b653d2223613737636566222f3e3c7061746820643d226d313033203433352039382d312032322d3132395a222066696c6c3d222339363635656222207374726f6b653d2223393636356562222f3e3c7061746820643d226d323233203330352d3232203132392038382d33355a222066696c6c3d222336303330623522207374726f6b653d2223363033306235222f3e3c7061746820643d226d3238392033393920313330203133332d362d3134345a222066696c6c3d222336363333633022207374726f6b653d2223363633336330222f3e3c7061746820643d226d34313320333838203735203132362d392d3133385a222066696c6c3d222336303330623522207374726f6b653d2223363033306235222f3e3c7061746820643d226d313334203230382038392039372d31332d3131325a222066696c6c3d222336363333633022207374726f6b653d2223363633336330222f3e3c7061746820643d226d313939203131332d36352039352037362d31355a6d343132203136342d31352d35372d35382036345a222066696c6c3d222338343463653622207374726f6b653d2223383434636536222f3e3c7061746820643d226d353338203238342035382d36342d36392031365a222066696c6c3d222337343362643822207374726f6b653d2223373433626438222f3e3c7061746820643d224d353237203233362035313320363120343032203231365a222066696c6c3d222339363635656222207374726f6b653d2223393636356562222f3e3c7061746820643d226d363237203431352d31362d3133382d373320375a222066696c6c3d222336363333633022207374726f6b653d2223363633336330222f3e3c7061746820643d226d3538352036382d37322d37203134203137355a4d3338302039342033333620306c2d32392039325a222066696c6c3d222336303330623522207374726f6b653d2223363033306235222f3e3c7061746820643d226d3130332034333520393620333320322d33345a222066696c6c3d222337623366653422207374726f6b653d2223376233666534222f3e3c7061746820643d226d323031203433342036302037392032382d3131345a222066696c6c3d222338643538653922207374726f6b653d2223386435386539222f3e3c7061746820643d226d313939203436382036322034352d36302d37395a222066696c6c3d222336303330623522207374726f6b653d2223363033306235222f3e3c7061746820643d224d3433312030682d39356c34342039345a222066696c6c3d222336643337636322207374726f6b653d2223366433376363222f3e3c7061746820643d224d3330372039322031393720306c32203131335a222066696c6c3d222336363333633022207374726f6b653d2223363633336330222f3e3c7061746820643d226d32363120353133203135382031392d3133302d3133335a222066696c6c3d222338643538653922207374726f6b653d2223386435386539222f3e3c7061746820643d226d34373920333736203134382033392d38392d3133315a222066696c6c3d222335393263613922207374726f6b653d2223353932636139222f3e3c7061746820643d224d3531332036312034333120306c2d35312039345a222066696c6c3d222337623366653422207374726f6b653d2223376233666534222f3e3c7061746820643d226d343139203533322036392d31382d37352d3132365a222066696c6c3d222336303330623522207374726f6b653d2223363033306235222f3e3c7061746820643d226d30203231312037312035302036332d35335a222066696c6c3d222336363333633022207374726f6b653d2223363633336330222f3e3c7061746820643d226d313334203230382d3633203533203135322034345a222066696c6c3d222339363635656222207374726f6b653d2223393636356562222f3e3c7061746820643d226d31393720302d36342037382036362033355a222066696c6c3d222338343463653622207374726f6b653d2223383434636536222f3e3c7061746820643d226d313939203131332d36362d33352031203133305a222066696c6c3d222337623366653422207374726f6b653d2223376233666534222f3e3c7061746820643d224d35393620323230203538352036386c2d3538203136385a4d3531332036316c2d312d3631682d38315a222066696c6c3d222361373763656622207374726f6b653d2223613737636566222f3e3c7061746820643d224d36393620313735203538352036386c3131203135325a222066696c6c3d222336643337636322207374726f6b653d2223366433376363222f3e3c7061746820643d226d34383820353134203133392d39392d3134382d33395a222066696c6c3d222338343463653622207374726f6b653d2223383434636536222f3e3c7061746820643d224d3537342030682d36326c312036315a222066696c6c3d222361373763656622207374726f6b653d2223613737636566222f3e3c7061746820643d226d37312032363120333220313734203132302d3133305a222066696c6c3d222337343362643822207374726f6b653d2223373433626438222f3e3c7061746820643d224d323032203630306837316c2d31322d38375a222066696c6c3d222335393263613922207374726f6b653d2223353932636139222f3e3c7061746820643d224d3333362030483139376c3131302039325a222066696c6c3d222336303330623522207374726f6b653d2223363033306235222f3e3c7061746820643d226d32363120353133203131322038372034362d36385a222066696c6c3d222338343463653622207374726f6b653d2223383434636536222f3e3c7061746820643d226d343139203533322034352036382032342d38365a222066696c6c3d222337623366653422207374726f6b653d2223376233666534222f3e3c7061746820643d226d34383820353134203132362d32302031332d37395a222066696c6c3d222338343463653622207374726f6b653d2223383434636536222f3e3c7061746820643d224d32373320363030683130306c2d3131322d38375a222066696c6c3d222361373763656622207374726f6b653d2223613737636566222f3e3c7061746820643d226d353939203630302031352d3130362d3132362032305a222066696c6c3d222338643538653922207374726f6b653d2223386435386539222f3e3c7061746820643d224d3538352036382035373420306c2d36312036315a222066696c6c3d222337343362643822207374726f6b653d2223373433626438222f3e3c7061746820643d226d323032203630302035392d38372d36322d34355a222066696c6c3d222336363333633022207374726f6b653d2223363633336330222f3e3c7061746820643d226d373734203236382d37382d39332d3835203130325a222066696c6c3d222336643337636322207374726f6b653d2223366433376363222f3e3c7061746820643d226d363131203237372038352d3130322d3130302034355a222066696c6c3d222339363635656222207374726f6b653d2223393636356562222f3e3c7061746820643d224d353835203638203730322030483537345a222066696c6c3d222336363333633022207374726f6b653d2223363633336330222f3e3c7061746820643d226d373139203333382d3130382d3631203136203133385a222066696c6c3d222339663730656422207374726f6b653d2223396637306564222f3e3c7061746820643d226d313033203433352031322037332038342d34305a222066696c6c3d222339363635656222207374726f6b653d2223393636356562222f3e3c7061746820643d226d3020353338203131352d33302d31322d37335a222066696c6c3d222336363333633022207374726f6b653d2223363633336330222f3e3c7061746820643d224d333733203630306839316c2d34352d36385a222066696c6c3d222336643337636322207374726f6b653d2223366433376363222f3e3c7061746820643d226d373339203431382d32302d38302d39322037375a222066696c6c3d222336363333633022207374726f6b653d2223363633336330222f3e3c7061746820643d224d30203739763133326c3133342d335a222066696c6c3d222337623366653422207374726f6b653d2223376233666534222f3e3c7061746820643d224d3731203236312030203332336c313033203131325a222066696c6c3d222339363635656222207374726f6b653d2223393636356562222f3e3c7061746820643d226d3020373920313334203132392d312d3133305a222066696c6c3d222335393263613922207374726f6b653d2223353932636139222f3e3c7061746820643d224d3020323131763131326c37312d36325a222066696c6c3d222336643337636322207374726f6b653d2223366433376363222f3e3c7061746820643d226d313135203530382038372039322d332d3133325a222066696c6c3d222338643538653922207374726f6b653d2223386435386539222f3e3c7061746820643d226d373638203136362d34352d32372d32372033365a222066696c6c3d222339363635656222207374726f6b653d2223393636356562222f3e3c7061746820643d226d363936203137352032372d33362d3133382d37315a222066696c6c3d222361373763656622207374726f6b653d2223613737636566222f3e3c7061746820643d226d3639312036303020312d3133332d37382032375a222066696c6c3d222337343362643822207374726f6b653d2223373433626438222f3e3c7061746820643d226d363134203439342037382d32372d36352d35325a222066696c6c3d222338343463653622207374726f6b653d2223383434636536222f3e3c7061746820643d224d31393720304837386c35352037385a222066696c6c3d222338643538653922207374726f6b653d2223386435386539222f3e3c7061746820643d224d30203332337638396c3130332032335a222066696c6c3d222338343463653622207374726f6b653d2223383434636536222f3e3c7061746820643d226d313135203530382d3332203932683131395a6d3537372d34312034372d34392d3131322d335a6d32372d3132392035352d37302d31363320395a222066696c6c3d222361373763656622207374726f6b653d2223613737636566222f3e3c7061746820643d224d34363420363030683133356c2d3131312d38365a222066696c6c3d222336363333633022207374726f6b653d2223363633336330222f3e3c7061746820643d226d373736203439342d31322d37382d323520325a222066696c6c3d222337623366653422207374726f6b653d2223376233666534222f3e3c7061746820643d224d3738203020302037396c3133332d315a222066696c6c3d222336303330623522207374726f6b653d2223363033306235222f3e3c7061746820643d226d373634203431362031302d3134382d35352037305a6d31302d3134382d362d3130322d373220395a6d2d35312d3132394c3730322030203538352036385a222066696c6c3d222338343463653622207374726f6b653d2223383434636536222f3e3c7061746820643d226d373736203439342d33372d37362d34372034395a222066696c6c3d222339363635656222207374726f6b653d2223393636356562222f3e3c7061746820643d226d373339203431382032352d322d34352d37385a222066696c6c3d222337343362643822207374726f6b653d2223373433626438222f3e3c7061746820643d224d3737322038362037303220306c3231203133395a222066696c6c3d222335393263613922207374726f6b653d2223353932636139222f3e3c7061746820643d226d30203533382038332036322033322d39325a222066696c6c3d222339363635656222207374726f6b653d2223393636356562222f3e3c7061746820643d226d3736382031363620342d38302d34392035335a222066696c6c3d222336643337636322207374726f6b653d2223366433376363222f3e3c7061746820643d224d39303020313232203737322038366c2d342038305a222066696c6c3d222338343463653622207374726f6b653d2223383434636536222f3e3c7061746820643d224d3738203048307637395a222066696c6c3d222339363635656222207374726f6b653d2223393636356562222f3e3c7061746820643d224d3020343132763132366c3130332d3130335a222066696c6c3d222338643538653922207374726f6b653d2223386435386539222f3e3c7061746820643d224d353939203630306839326c2d37372d3130365a222066696c6c3d222336363333633022207374726f6b653d2223363633336330222f3e3c7061746820643d226d363931203630302038352d3130362d38342d32375a222066696c6c3d222338643538653922207374726f6b653d2223386435386539222f3e3c7061746820643d224d39303020333835762d38376c2d3132362d33305a222066696c6c3d222335393263613922207374726f6b653d2223353932636139222f3e3c7061746820643d226d3737322038362d372d3836682d36335a4d30203533387636326838335a6d3930302d3135334c373734203236386c2d3130203134385a222066696c6c3d222339663730656422207374726f6b653d2223396637306564222f3e3c7061746820643d226d37373420323638203132362d38362d3133322d31365a222066696c6c3d222337343362643822207374726f6b653d2223373433626438222f3e3c7061746820643d224d373732203836203930302030483736355a222066696c6c3d222336303330623522207374726f6b653d2223363033306235222f3e3c7061746820643d224d39303020323938563138326c2d3132362038365a222066696c6c3d222335393263613922207374726f6b653d2223353932636139222f3e3c7061746820643d224d36393120363030683130346c2d31392d3130365a222066696c6c3d222336363333633022207374726f6b653d2223363633336330222f3e3c7061746820643d224d39303020343639762d38346c2d3133362033315a222066696c6c3d222339663730656422207374726f6b653d2223396637306564222f3e3c7061746820643d226d393030203436392d3133362d35332031322037385a222066696c6c3d222336303330623522207374726f6b653d2223363033306235222f3e3c7061746820643d224d39303020313832762d36306c2d3133322034345a222066696c6c3d222337343362643822207374726f6b653d2223373433626438222f3e3c7061746820643d224d39303020363030563436396c2d3132342032355a222066696c6c3d222338643538653922207374726f6b653d2223386435386539222f3e3c7061746820643d224d3930302031323256304c3737322038365a222066696c6c3d222361373763656622207374726f6b653d2223613737636566222f3e3c7061746820643d224d37393520363030683130354c373736203439345a222066696c6c3d222337343362643822207374726f6b653d2223373433626438222f3e3c7061746820643d224d37322e3836332034322e39343961342e33383220342e3338322030203020302d342e33393420306c2d31302e30383120362e3033322d362e383520332e3933342d31302e30383120362e30333261342e33383220342e3338322030203020312d342e33393420306c2d382e3031332d342e37323161342e353220342e35322030203020312d312e3538392d312e36313620342e353420342e35342030203020312d2e3630382d322e313837762d392e333161342e323720342e3237203020302031202e3537322d322e32303820342e323520342e323520302030203120312e3632352d312e3539356c372e3838342d342e353961342e33383220342e33383220302030203120342e33393420306c372e38383420342e353961342e353220342e353220302030203120312e35383920312e36313620342e353420342e3534203020302031202e36303820322e31383776362e3033326c362e38352d342e303635762d362e30333261342e323720342e32372030203020302d2e3537322d322e32303820342e323520342e32352030203020302d312e3632352d312e3539354c34312e3435362032342e353961342e33383220342e3338322030203020302d342e33393420306c2d31342e38363420382e36353561342e323520342e32352030203020302d312e36323520312e35393520342e32373320342e3237332030203020302d2e35373220322e3230387631372e34343161342e323720342e3237203020302030202e35373220322e32303820342e323520342e323520302030203020312e36323520312e3539356c31342e38363420382e36353561342e33383220342e33383220302030203020342e33393420306c31302e3038312d352e39303120362e38352d342e3036352031302e3038312d352e39303161342e33383220342e33383220302030203120342e33393420306c372e38383420342e353961342e353220342e353220302030203120312e35383920312e36313620342e353420342e3534203020302031202e36303820322e31383776392e33313161342e323720342e32372030203020312d2e35373220322e32303820342e323520342e32352030203020312d312e36323520312e3539356c2d372e38383420342e37323161342e33383220342e3338322030203020312d342e33393420306c2d372e3838342d342e353961342e353220342e35322030203020312d312e3538392d312e36313620342e353320342e35332030203020312d2e3630382d322e313837762d362e3033326c2d362e383520342e30363576362e30333261342e323720342e3237203020302030202e35373220322e32303820342e323520342e323520302030203020312e36323520312e3539356c31342e38363420382e36353561342e33383220342e33383220302030203020342e33393420306c31342e3836342d382e36353561342e35343520342e35343520302030203020322e3139382d332e3830335635352e35333861342e323720342e32372030203020302d2e3537322d322e32303820342e323520342e32352030203020302d312e3632352d312e3539356c2d31342e3939332d382e3738367a222066696c6c3d2223666666222f3e3c7465787420783d2233322e352220793d223233312220666f6e742d73697a653d223332222066696c6c3d2223666666222066696c7465723d2275726c282361292220666f6e742d66616d696c793d22506c7573204a616b617274612053616e732c44656a6156752053616e732c4e6f746f20436f6c6f7220456d6f6a692c4170706c6520436f6c6f7220456d6f6a692c73616e732d73657269662220666f6e742d7765696768743d22626f6c64223e",
  "linkReferences": {},
  "deployedLinkReferences": {}
}